{
  "contractName": "Todo",
  "abi": [
    {
      "anonymous": false,
      "inputs": [
        {
          "indexed": false,
          "internalType": "string",
          "name": "name",
          "type": "string"
        }
      ],
      "name": "TodoAdded",
      "type": "event"
    },
    {
      "anonymous": false,
      "inputs": [
        {
          "indexed": false,
          "internalType": "string",
          "name": "name",
          "type": "string"
        }
      ],
      "name": "TodoRemoved",
      "type": "event"
    },
    {
      "inputs": [
        {
          "internalType": "uint256",
          "name": "",
          "type": "uint256"
        }
      ],
      "name": "todos",
      "outputs": [
        {
          "internalType": "string",
          "name": "name",
          "type": "string"
        }
      ],
      "stateMutability": "view",
      "type": "function",
      "constant": true
    },
    {
      "inputs": [
        {
          "internalType": "string",
          "name": "_name",
          "type": "string"
        }
      ],
      "name": "addTodo",
      "outputs": [],
      "stateMutability": "nonpayable",
      "type": "function"
    },
    {
      "inputs": [],
      "name": "getTodos",
      "outputs": [
        {
          "components": [
            {
              "internalType": "string",
              "name": "name",
              "type": "string"
            }
          ],
          "internalType": "struct Todo.TodoItem[]",
          "name": "",
          "type": "tuple[]"
        }
      ],
      "stateMutability": "view",
      "type": "function",
      "constant": true
    },
    {
      "inputs": [],
      "name": "getTodosCount",
      "outputs": [
        {
          "internalType": "uint256",
          "name": "",
          "type": "uint256"
        }
      ],
      "stateMutability": "view",
      "type": "function",
      "constant": true
    },
    {
      "inputs": [
        {
          "internalType": "uint256",
          "name": "index",
          "type": "uint256"
        }
      ],
      "name": "removeTodoByIndex",
      "outputs": [],
      "stateMutability": "nonpayable",
      "type": "function"
    }
  ],
  "bytecode": "0x608060405234801561000f575f80fd5b50610c6c8061001d5f395ff3fe608060405234801561000f575f80fd5b5060043610610055575f3560e01c806395ffebf514610059578063bc8bc2b414610075578063bd991954146100a5578063c33926cb146100c3578063d366c448146100e1575b5f80fd5b610073600480360381019061006e9190610627565b6100fd565b005b61008f600480360381019061008a91906106a1565b61017f565b60405161009c9190610746565b60405180910390f35b6100ad610229565b6040516100ba9190610775565b60405180910390f35b6100cb610234565b6040516100d891906108b8565b60405180910390f35b6100fb60048036038101906100f691906106a1565b61031a565b005b5f604051806020016040528083815250908060018154018082558091505060019003905f5260205f20015f909190919091505f820151815f0190816101429190610ad2565b5050507fce4bc244d070cf1b8ccc7547a98a9c33f8ebfe34b7c9371596beb11e9b1e8b99816040516101749190610746565b60405180910390a150565b5f818154811061018d575f80fd5b905f5260205f20015f91509050805f0180546101a890610905565b80601f01602080910402602001604051908101604052809291908181526020018280546101d490610905565b801561021f5780601f106101f65761010080835404028352916020019161021f565b820191905f5260205f20905b81548152906001019060200180831161020257829003601f168201915b5050505050905081565b5f8080549050905090565b60605f805480602002602001604051908101604052809291908181526020015f905b82821015610311578382905f5260205f20016040518060200160405290815f8201805461028290610905565b80601f01602080910402602001604051908101604052809291908181526020018280546102ae90610905565b80156102f95780601f106102d0576101008083540402835291602001916102f9565b820191905f5260205f20905b8154815290600101906020018083116102dc57829003601f168201915b50505050508152505081526020019060010190610256565b50505050905090565b5f805490508110610360576040517f08c379a000000000000000000000000000000000000000000000000000000000815260040161035790610beb565b60405180910390fd5b5f80828154811061037457610373610c09565b5b905f5260205f20016040518060200160405290815f8201805461039690610905565b80601f01602080910402602001604051908101604052809291908181526020018280546103c290610905565b801561040d5780601f106103e45761010080835404028352916020019161040d565b820191905f5260205f20905b8154815290600101906020018083116103f057829003601f168201915b50505050508152505090505f828154811061042b5761042a610c09565b5b905f5260205f20015f8082015f6104429190610482565b50507f15ac6c8fff8e37eb0a895ce4f2a5f53aa806ce53bb28471f185ea00f48b045ed815f01516040516104769190610746565b60405180910390a15050565b50805461048e90610905565b5f825580601f1061049f57506104bc565b601f0160209004905f5260205f20908101906104bb91906104bf565b5b50565b5b808211156104d6575f815f9055506001016104c0565b5090565b5f604051905090565b5f80fd5b5f80fd5b5f80fd5b5f80fd5b5f601f19601f8301169050919050565b7f4e487b71000000000000000000000000000000000000000000000000000000005f52604160045260245ffd5b610539826104f3565b810181811067ffffffffffffffff8211171561055857610557610503565b5b80604052505050565b5f61056a6104da565b90506105768282610530565b919050565b5f67ffffffffffffffff82111561059557610594610503565b5b61059e826104f3565b9050602081019050919050565b828183375f83830152505050565b5f6105cb6105c68461057b565b610561565b9050828152602081018484840111156105e7576105e66104ef565b5b6105f28482856105ab565b509392505050565b5f82601f83011261060e5761060d6104eb565b5b813561061e8482602086016105b9565b91505092915050565b5f6020828403121561063c5761063b6104e3565b5b5f82013567ffffffffffffffff811115610659576106586104e7565b5b610665848285016105fa565b91505092915050565b5f819050919050565b6106808161066e565b811461068a575f80fd5b50565b5f8135905061069b81610677565b92915050565b5f602082840312156106b6576106b56104e3565b5b5f6106c38482850161068d565b91505092915050565b5f81519050919050565b5f82825260208201905092915050565b5f5b838110156107035780820151818401526020810190506106e8565b5f8484015250505050565b5f610718826106cc565b61072281856106d6565b93506107328185602086016106e6565b61073b816104f3565b840191505092915050565b5f6020820190508181035f83015261075e818461070e565b905092915050565b61076f8161066e565b82525050565b5f6020820190506107885f830184610766565b92915050565b5f81519050919050565b5f82825260208201905092915050565b5f819050602082019050919050565b5f82825260208201905092915050565b5f6107d1826106cc565b6107db81856107b7565b93506107eb8185602086016106e6565b6107f4816104f3565b840191505092915050565b5f602083015f8301518482035f86015261081982826107c7565b9150508091505092915050565b5f61083183836107ff565b905092915050565b5f602082019050919050565b5f61084f8261078e565b6108598185610798565b93508360208202850161086b856107a8565b805f5b858110156108a657848403895281516108878582610826565b945061089283610839565b925060208a0199505060018101905061086e565b50829750879550505050505092915050565b5f6020820190508181035f8301526108d08184610845565b905092915050565b7f4e487b71000000000000000000000000000000000000000000000000000000005f52602260045260245ffd5b5f600282049050600182168061091c57607f821691505b60208210810361092f5761092e6108d8565b5b50919050565b5f819050815f5260205f209050919050565b5f6020601f8301049050919050565b5f82821b905092915050565b5f600883026109917fffffffffffffffffffffffffffffffffffffffffffffffffffffffffffffffff82610956565b61099b8683610956565b95508019841693508086168417925050509392505050565b5f819050919050565b5f6109d66109d16109cc8461066e565b6109b3565b61066e565b9050919050565b5f819050919050565b6109ef836109bc565b610a036109fb826109dd565b848454610962565b825550505050565b5f90565b610a17610a0b565b610a228184846109e6565b505050565b5b81811015610a4557610a3a5f82610a0f565b600181019050610a28565b5050565b601f821115610a8a57610a5b81610935565b610a6484610947565b81016020851015610a73578190505b610a87610a7f85610947565b830182610a27565b50505b505050565b5f82821c905092915050565b5f610aaa5f1984600802610a8f565b1980831691505092915050565b5f610ac28383610a9b565b9150826002028217905092915050565b610adb826106cc565b67ffffffffffffffff811115610af457610af3610503565b5b610afe8254610905565b610b09828285610a49565b5f60209050601f831160018114610b3a575f8415610b28578287015190505b610b328582610ab7565b865550610b99565b601f198416610b4886610935565b5f5b82811015610b6f57848901518255600182019150602085019450602081019050610b4a565b86831015610b8c5784890151610b88601f891682610a9b565b8355505b6001600288020188555050505b505050505050565b7f546f646f20646f6573206e6f74206578697374000000000000000000000000005f82015250565b5f610bd56013836106d6565b9150610be082610ba1565b602082019050919050565b5f6020820190508181035f830152610c0281610bc9565b9050919050565b7f4e487b71000000000000000000000000000000000000000000000000000000005f52603260045260245ffdfea26469706673582212208620c1f45c3e03965b51638a12067af9405617a65dc4d9488d1ec874d361345664736f6c63430008140033",
  "immutableReferences": {},
  "source": "// SPDX-License-Identifier: MIT\n\npragma solidity ^0.8.0;\n\ncontract Todo {\n    struct TodoItem {\n        string name;\n    }\n    event TodoAdded(\n        string name\n    );\n    event TodoRemoved(\n        string name\n    );\n\n    TodoItem[] public todos;\n\n    function addTodo(string memory _name) public {\n        todos.push(TodoItem(_name));\n        emit TodoAdded(_name);\n    }\n\n    function getTodos() public view returns (TodoItem[] memory) {\n        return todos;\n    }\n\n    function getTodosCount() public view returns (uint256) {\n        return todos.length;\n    }\n    // remove todo by index\n    function removeTodoByIndex(uint256 index) public {\n        require(index < todos.length, \"Todo does not exist\");\n        TodoItem memory todo = todos[index];\n        delete todos[index];\n        emit TodoRemoved(todo.name);\n    }\n}\n\n\n\n",
  "sourcePath": "/Users/chidumennamdi/Documents/books/blockchain-projects/dapps-eth/todo_dapp/todo-truffle/contracts/Todo.sol",
  "compiler": {
    "name": "solc",
    "version": "0.8.20+commit.a1b79de6.Emscripten.clang"
  },
  "schemaVersion": "3.4.14",
  "updatedAt": "2023-05-31T15:04:43.833Z",
  "networkType": "ethereum",
  "devdoc": {
    "kind": "dev",
    "methods": {},
    "version": 1
  },
  "userdoc": {
    "kind": "user",
    "methods": {},
    "version": 1
  }
}