{
  "contractName": "Todo",
  "abi": [
    {
      "anonymous": false,
      "inputs": [
        {
          "indexed": false,
          "internalType": "string",
          "name": "name",
          "type": "string"
        }
      ],
      "name": "TodoAdded",
      "type": "event"
    },
    {
      "anonymous": false,
      "inputs": [
        {
          "indexed": false,
          "internalType": "string",
          "name": "name",
          "type": "string"
        }
      ],
      "name": "TodoRemoved",
      "type": "event"
    },
    {
      "inputs": [
        {
          "internalType": "uint256",
          "name": "",
          "type": "uint256"
        }
      ],
      "name": "todos",
      "outputs": [
        {
          "internalType": "string",
          "name": "name",
          "type": "string"
        },
        {
          "internalType": "bool",
          "name": "completed",
          "type": "bool"
        }
      ],
      "stateMutability": "view",
      "type": "function",
      "constant": true
    },
    {
      "inputs": [
        {
          "internalType": "string",
          "name": "_name",
          "type": "string"
        }
      ],
      "name": "addTodo",
      "outputs": [],
      "stateMutability": "nonpayable",
      "type": "function"
    },
    {
      "inputs": [],
      "name": "getTodos",
      "outputs": [
        {
          "components": [
            {
              "internalType": "string",
              "name": "name",
              "type": "string"
            },
            {
              "internalType": "bool",
              "name": "completed",
              "type": "bool"
            }
          ],
          "internalType": "struct Todo.TodoItem[]",
          "name": "",
          "type": "tuple[]"
        }
      ],
      "stateMutability": "view",
      "type": "function",
      "constant": true
    },
    {
      "inputs": [],
      "name": "getTodosCount",
      "outputs": [
        {
          "internalType": "uint256",
          "name": "",
          "type": "uint256"
        }
      ],
      "stateMutability": "view",
      "type": "function",
      "constant": true
    },
    {
      "inputs": [
        {
          "internalType": "uint256",
          "name": "index",
          "type": "uint256"
        }
      ],
      "name": "removeTodoByIndex",
      "outputs": [],
      "stateMutability": "nonpayable",
      "type": "function"
    },
    {
      "inputs": [
        {
          "internalType": "uint256",
          "name": "index",
          "type": "uint256"
        }
      ],
      "name": "markTodoAsCompleted",
      "outputs": [],
      "stateMutability": "nonpayable",
      "type": "function"
    }
  ],
  "bytecode": "0x608060405234801561000f575f80fd5b50610e158061001d5f395ff3fe608060405234801561000f575f80fd5b5060043610610060575f3560e01c806395ffebf514610064578063aaed706a14610080578063bc8bc2b41461009c578063bd991954146100cd578063c33926cb146100eb578063d366c44814610109575b5f80fd5b61007e60048036038101906100799190610766565b610125565b005b61009a600480360381019061009591906107e0565b6101d2565b005b6100b660048036038101906100b191906107e0565b610255565b6040516100c492919061089f565b60405180910390f35b6100d5610315565b6040516100e291906108dc565b60405180910390f35b6100f3610320565b6040516101009190610a41565b60405180910390f35b610123600480360381019061011e91906107e0565b610424565b005b5f60405180604001604052808381526020015f1515815250908060018154018082558091505060019003905f5260205f2090600202015f909190919091505f820151815f0190816101769190610c5b565b506020820151816001015f6101000a81548160ff02191690831515021790555050507fce4bc244d070cf1b8ccc7547a98a9c33f8ebfe34b7c9371596beb11e9b1e8b99816040516101c79190610d2a565b60405180910390a150565b5f805490508110610218576040517f08c379a000000000000000000000000000000000000000000000000000000000815260040161020f90610d94565b60405180910390fd5b60015f828154811061022d5761022c610db2565b5b905f5260205f2090600202016001015f6101000a81548160ff02191690831515021790555050565b5f8181548110610263575f80fd5b905f5260205f2090600202015f91509050805f01805461028290610a8e565b80601f01602080910402602001604051908101604052809291908181526020018280546102ae90610a8e565b80156102f95780601f106102d0576101008083540402835291602001916102f9565b820191905f5260205f20905b8154815290600101906020018083116102dc57829003601f168201915b505050505090806001015f9054906101000a900460ff16905082565b5f8080549050905090565b60605f805480602002602001604051908101604052809291908181526020015f905b8282101561041b578382905f5260205f2090600202016040518060400160405290815f8201805461037290610a8e565b80601f016020809104026020016040519081016040528092919081815260200182805461039e90610a8e565b80156103e95780601f106103c0576101008083540402835291602001916103e9565b820191905f5260205f20905b8154815290600101906020018083116103cc57829003601f168201915b50505050508152602001600182015f9054906101000a900460ff16151515158152505081526020019060010190610342565b50505050905090565b5f80549050811061046a576040517f08c379a000000000000000000000000000000000000000000000000000000000815260040161046190610d94565b60405180910390fd5b5f80828154811061047e5761047d610db2565b5b905f5260205f2090600202016040518060400160405290815f820180546104a490610a8e565b80601f01602080910402602001604051908101604052809291908181526020018280546104d090610a8e565b801561051b5780601f106104f25761010080835404028352916020019161051b565b820191905f5260205f20905b8154815290600101906020018083116104fe57829003601f168201915b50505050508152602001600182015f9054906101000a900460ff16151515158152505090505f828154811061055357610552610db2565b5b905f5260205f2090600202015f8082015f61056e91906105c1565b600182015f6101000a81549060ff021916905550507f15ac6c8fff8e37eb0a895ce4f2a5f53aa806ce53bb28471f185ea00f48b045ed815f01516040516105b59190610d2a565b60405180910390a15050565b5080546105cd90610a8e565b5f825580601f106105de57506105fb565b601f0160209004905f5260205f20908101906105fa91906105fe565b5b50565b5b80821115610615575f815f9055506001016105ff565b5090565b5f604051905090565b5f80fd5b5f80fd5b5f80fd5b5f80fd5b5f601f19601f8301169050919050565b7f4e487b71000000000000000000000000000000000000000000000000000000005f52604160045260245ffd5b61067882610632565b810181811067ffffffffffffffff8211171561069757610696610642565b5b80604052505050565b5f6106a9610619565b90506106b5828261066f565b919050565b5f67ffffffffffffffff8211156106d4576106d3610642565b5b6106dd82610632565b9050602081019050919050565b828183375f83830152505050565b5f61070a610705846106ba565b6106a0565b9050828152602081018484840111156107265761072561062e565b5b6107318482856106ea565b509392505050565b5f82601f83011261074d5761074c61062a565b5b813561075d8482602086016106f8565b91505092915050565b5f6020828403121561077b5761077a610622565b5b5f82013567ffffffffffffffff81111561079857610797610626565b5b6107a484828501610739565b91505092915050565b5f819050919050565b6107bf816107ad565b81146107c9575f80fd5b50565b5f813590506107da816107b6565b92915050565b5f602082840312156107f5576107f4610622565b5b5f610802848285016107cc565b91505092915050565b5f81519050919050565b5f82825260208201905092915050565b5f5b83811015610842578082015181840152602081019050610827565b5f8484015250505050565b5f6108578261080b565b6108618185610815565b9350610871818560208601610825565b61087a81610632565b840191505092915050565b5f8115159050919050565b61089981610885565b82525050565b5f6040820190508181035f8301526108b7818561084d565b90506108c66020830184610890565b9392505050565b6108d6816107ad565b82525050565b5f6020820190506108ef5f8301846108cd565b92915050565b5f81519050919050565b5f82825260208201905092915050565b5f819050602082019050919050565b5f82825260208201905092915050565b5f6109388261080b565b610942818561091e565b9350610952818560208601610825565b61095b81610632565b840191505092915050565b61096f81610885565b82525050565b5f604083015f8301518482035f86015261098f828261092e565b91505060208301516109a46020860182610966565b508091505092915050565b5f6109ba8383610975565b905092915050565b5f602082019050919050565b5f6109d8826108f5565b6109e281856108ff565b9350836020820285016109f48561090f565b805f5b85811015610a2f5784840389528151610a1085826109af565b9450610a1b836109c2565b925060208a019950506001810190506109f7565b50829750879550505050505092915050565b5f6020820190508181035f830152610a5981846109ce565b905092915050565b7f4e487b71000000000000000000000000000000000000000000000000000000005f52602260045260245ffd5b5f6002820490506001821680610aa557607f821691505b602082108103610ab857610ab7610a61565b5b50919050565b5f819050815f5260205f209050919050565b5f6020601f8301049050919050565b5f82821b905092915050565b5f60088302610b1a7fffffffffffffffffffffffffffffffffffffffffffffffffffffffffffffffff82610adf565b610b248683610adf565b95508019841693508086168417925050509392505050565b5f819050919050565b5f610b5f610b5a610b55846107ad565b610b3c565b6107ad565b9050919050565b5f819050919050565b610b7883610b45565b610b8c610b8482610b66565b848454610aeb565b825550505050565b5f90565b610ba0610b94565b610bab818484610b6f565b505050565b5b81811015610bce57610bc35f82610b98565b600181019050610bb1565b5050565b601f821115610c1357610be481610abe565b610bed84610ad0565b81016020851015610bfc578190505b610c10610c0885610ad0565b830182610bb0565b50505b505050565b5f82821c905092915050565b5f610c335f1984600802610c18565b1980831691505092915050565b5f610c4b8383610c24565b9150826002028217905092915050565b610c648261080b565b67ffffffffffffffff811115610c7d57610c7c610642565b5b610c878254610a8e565b610c92828285610bd2565b5f60209050601f831160018114610cc3575f8415610cb1578287015190505b610cbb8582610c40565b865550610d22565b601f198416610cd186610abe565b5f5b82811015610cf857848901518255600182019150602085019450602081019050610cd3565b86831015610d155784890151610d11601f891682610c24565b8355505b6001600288020188555050505b505050505050565b5f6020820190508181035f830152610d42818461084d565b905092915050565b7f546f646f20646f6573206e6f74206578697374000000000000000000000000005f82015250565b5f610d7e601383610815565b9150610d8982610d4a565b602082019050919050565b5f6020820190508181035f830152610dab81610d72565b9050919050565b7f4e487b71000000000000000000000000000000000000000000000000000000005f52603260045260245ffdfea2646970667358221220e7f6215e620dceb90a3e752e7db1db7313075760acf50a0e52e7e6656e818ccb64736f6c63430008140033",
  "immutableReferences": {},
  "source": "// SPDX-License-Identifier: MIT\n\npragma solidity ^0.8.0;\n\ncontract Todo {\n    struct TodoItem {\n        string name;\n        bool completed;\n    }\n\n    event TodoAdded(\n        string name\n    );\n    event TodoRemoved(\n        string name\n    );\n\n    TodoItem[] public todos;\n\n    function addTodo(string memory _name) public {\n        todos.push(TodoItem(_name, false));\n        emit TodoAdded(_name);\n    }\n\n    function getTodos() public view returns (TodoItem[] memory) {\n        return todos;\n    }\n\n    function getTodosCount() public view returns (uint256) {\n        return todos.length;\n    }\n\n    // remove todo by index\n    function removeTodoByIndex(uint256 index) public {\n        require(index < todos.length, \"Todo does not exist\");\n        TodoItem memory todo = todos[index];\n        delete todos[index];\n        emit TodoRemoved(todo.name);\n    }\n\n    // mark todo as completed by index\n    function markTodoAsCompleted(uint256 index) public {\n        require(index < todos.length, \"Todo does not exist\");\n        todos[index].completed = true;\n    }\n}\n\n\n\n",
  "sourcePath": "/Users/chidumennamdi/Documents/books/blockchain-projects/dapps-eth/todo_dapp/todo-truffle/contracts/Todo.sol",
  "compiler": {
    "name": "solc",
    "version": "0.8.20+commit.a1b79de6.Emscripten.clang"
  },
  "schemaVersion": "3.4.14",
  "updatedAt": "2023-06-01T07:22:48.045Z",
  "networkType": "ethereum",
  "devdoc": {
    "kind": "dev",
    "methods": {},
    "version": 1
  },
  "userdoc": {
    "kind": "user",
    "methods": {},
    "version": 1
  }
}